:020000040800F2
:1000000080110020F101000811250008CD1F000813
:100010000D25000841150008F73700080000000012
:10002000000000000000000000000000AF2B0008EE
:10003000B11500080000000025290008492F00081C
:100040000B0200080B0200080B0200080B0200085C
:100050000B0200080B0200080B0200080B0200084C
:100060000B0200080B0200080B0200080B0200083C
:100070000B0200080B0200080B0200080B0200082C
:100080000B0200080B0200080B0200080B0200081C
:100090000B0200080B0200080B0200080B0200080C
:1000A0000B0200080B0200080B0200080B020008FC
:1000B000AD2F0008313100080B0200080B020008C8
:1000C0000B0200080B0200080B0200080B020008DC
:1000D0000B020008B53200080B020008513300087B
:1000E0000B0200080B0200080B02000800F002F8E7
:1000F00000F06EF80AA090E8000C82448344AAF154
:100100000107DA4501D100F063F8AFF2090EBAE851
:100110000F0013F0010F18BFFB1A43F0010318473B
:100120002C5500004C55000010F8013B0A4413F018
:10013000030408BF10F8014B1D1108BF10F8015B44
:10014000641E05D010F8016B641E01F8016BF9D133
:10015000002D15D010F8014B03F00C030C2BA1EB74
:1001600004040ABF10F8013BA4EB8314A4EB03249E
:1001700005F1010314F8016B5B1E01F8016BF9D561
:10018000914238BF10F8013BD1D3704700230024BF
:1001900000250026103A28BF78C1FBD8520728BF97
:1001A00030C148BF0B607047662904F0F6856429AA
:1001B00000F07C80002070471FB500F069FC04004F
:1001C0000020002103F052FEE0601FBD10B510BDFD
:1001D00000F05EFD1146FFF7EFFF03F057FD00F062
:1001E0007CFD03B4FFF7F2FF03BC03F054FB0000F7
:1001F0000948804709480047FEE7FEE7FEE7FEE7BB
:10020000FEE7FEE7FEE7FEE7FEE7FEE704480549F6
:10021000054A064B704700004D2F0008ED0000080E
:10022000800B002080110020800D0020800D002018
:10023000704700000FB41CB5074B06AA7B44694603
:100240000090059800F0E5FB0020694600F0F4FB03
:100250001CBC5DF814FB0000F907000070B50446F3
:1002600085690068C10601D5302600E02026C00758
:1002700007D070BDD4E9012130469047206A401C68
:1002800020626D1EF6D570BD70B504468569007894
:10029000C00707D170BDD4E9012120209047206A12
:1002A000401C20626D1EF6D570BD00002DE9F041A6
:1002B0000646002410687529314616A510D0AFF304
:1002C0000080002802DA404213A507E031688A075F
:1002D00001D512A502E0490704D511A5012401E0CA
:1002E000AFF3008000210A2206F1240709E0B0FBE9
:1002F000F2FCB0FBF2F302FB1C00303078541846DD
:10030000491C0028F3D123462A463046BDE8F04177
:1003100000F011B9000000002D0000002B000000CB
:10032000200000002DE9F0474FF0000A89460446FE
:10033000C0F820A02046E1688847002876D025280C
:1003400006D0D4E901219047206A401C2062F1E7E1
:10035000E168204600258847C4F81CA0064600270F
:10036000C4F818A02A2E09D0304603F08DFA38B30D
:1003700004EB8708303EC8F8186019E059F8041BF0
:10038000204604EB87029161E1688847012F064609
:1003900018D1E069002820DA25F020051DE0D8F802
:1003A000180000EB800006EB40003038C8F8180059
:1003B0002046E1688847064603F066FA0028EED139
:1003C000012F0AD02E2E08D12046E16888477F1CD5
:1003D0000646022F45F02005C4DBA069002803DA99
:1003E000404245F00105A061E80701D025F0100565
:1003F000B6B1A6F14100192802D8203645F40065AF
:100400004A463146204625604D46FFF7CDFE58B19D
:10041000012806D0ED1D25F0070000F1080989E745
:1004200004E005F1040985E730468AE7206ABDE863
:10043000F08730B505460B462A4613F8014B12F8F3
:10044000010B08B1A042F8D01CB1002802D06D1CED
:10045000F1E7284630BD10B5431C02E010F8011B3F
:1004600071B18107FAD14FF0013202C88C1A8C4366
:1004700014EAC211F9D0C01A0A0603D0C01E10BD7A
:10048000C01A10BD0A0401D0801E10BD0902FCD0A4
:10049000401E10BD4FF000020429C0F0128010F081
:1004A000030C00F0D082CCF1040CBCF1020F18BF99
:1004B00000F8012BA8BF20F8022BA1EB0C0100F0E3
:1004C000C2BA5FEAC17C24BF00F8012B00F8012BFF
:1004D00048BF00F8012B704710B5044610F0030F19
:1004E00008BF11F0030F40F015804FF0013E121FBE
:1004F000C0F20E8051F8043BA3EB0E0C2CEA030C67
:100500001CEACE1C08BF40F8043BF0D0A1F1040166
:1005100002F10402521E08DB11F8013B002B00F827
:10052000013BF7D11146FFF7B5FF204610BD7047DC
:100530007047704770472DE9F0470D46994692463F
:10054000044600F124080168880604D5E06921F01A
:100550001001216000E00120A84201DD471B00E0FE
:100560000027A1697A1902EB0900081AA061207816
:10057000C00602D42046FFF771FE002608E0D4E949
:1005800001211AF806009047206A401C761C206260
:100590004E45F4DB2078C0060AD52046FFF75EFE04
:1005A00006E0D4E9012130209047206A401C2062F7
:1005B000381EA7F10107F4DC07E0D4E9012118F89F
:1005C00005009047206A401C2062281EA5F1010505
:1005D000F3DC2046FFF758FE2078000602D5022003
:1005E000BDE8F0870120FBE770472DE9FF4F0C467F
:1005F0001E464FF0FF378BB0D2E90001DDF8608076
:100600000A908A46C1F30A5505B93D4600210846BD
:100610004FF00000BAF1000F00F4400005DA00EBE3
:1006200080004FF4400101EA50004FEA9059B9F1BF
:10063000010F00DDB9460A9850EA4A000ED044F690
:100640001050A5F2FF3545432F14B8F1000F1ED00E
:100650007542291E1EDDC9F100021CE0B8F1010F30
:100660004FF0000001D0302103E0F24305E02154B7
:10067000401CB042FBDB30460022002121540B9984
:10068000C1F80880C1E900200FB0BDE8F08FBD1BA4
:100690006D1CDEE74A4600DA694206A800F082FADD
:1006A00006AB93E8070003AB83E8070050460A99BE
:1006B00000F05CFB8DE80700A0F500501F380090AB
:1006C0000398002D0ADD42F21F014A460844002328
:1006D00003A90390684600F0C5FD09E0A0F50050AD
:1006E0004A461F38002303A90390684600F0CFFD57
:1006F0008DE807000004000C03D04FF0FF304108E4
:1007000000E01046B8F1000F03D000220092154619
:100710001EE0751E05D400F0BFF9303262556D1E23
:10072000F9D5B3460122084302D000227F1C04E021
:100730002078302801D100227F1E002A099784D01A
:100740001DE0112D07DA00F0A7F9303262556D1C5B
:1007500050EA0102F5D1084302D00098C8B10EE07A
:100760000021681E05E0235C625C63542254401E35
:10077000491C8142F7DBAB46A81B401E09900020B4
:1007800004F80B000B98099AC0F80880C0E9002B08
:100790007AE711264FF0000857E72DE9F04F884619
:1007A0000446D21D22F0070191B0D1E90001CDE944
:1007B0000A0103F055F802460B98C00F01D02D2016
:1007C00007E02068810701D52B2002E0202101EA03
:1007D000C000032A099001D0072A05DB03464146E1
:1007E000204600F09FF90BE12078800601D5E069F2
:1007F00000E00620B8F1650F814606D0B8F1660F1B
:1008000018D0B8F1670F70D131E00020B9F1110FA5
:10081000009001DB112301E009F101030AAA01A9FB
:100820000CA8FFF7E2FEDDE90C70002609F10105D6
:10083000834647E001204B4600904FF000470AAA4C
:1008400001A90CA8FFF7D1FEDDE90DB00C995D46BA
:10085000002610B909F101000D18B9EB050003D409
:10086000C0F1FF3609F10105A5EB09002BE0B9F154
:10087000010F01DA4FF001090020B9F1110F0090CA
:10088000484601DD112300E003460AAA01A90CA88D
:10089000FFF7ABFEDDE90C704D460026834620785D
:1008A00000070AD4AB4500DA5D4601A8012D04DD3E
:1008B000411911F8011C302907D04F4502DA17F110
:1008C000040F04DA012082460FE06D1EEEE7002FD0
:1008D00002DCED1B3E4403E0781CA84200DD7D1CD9
:1008E000B81B00F1010A4FF000472078000703D43D
:1008F000AA4501DB4FF0FF3A0021B7F1004F0DF19F
:1009000043088DF8431024D002202B23002F01DA56
:100910007F422D230A21021EA0F1010000DC5FB1FD
:1009200097FBF1FC97FBF1F201FB1C7C17460CF1E5
:10093000300C08F801CDEEE7A8F101000370218822
:10094000090501D5452100E06521A0F1010800F865
:10095000011C09980FA9A1EB0807FF1D00B1012098
:10096000411901EBEA70A1693844081A401EA061E0
:100970002078C00602D42046FFF770FC099828B101
:10098000D4E901219047206A401C20622078C006EB
:1009900022D52046FFF762FC1EE0002E04DBB345A3
:1009A00002DD01A8805D00E03020D4E901219047FC
:1009B000206A401C2062761CAAF101005FEA000A4E
:1009C0000AD100F065F8C0680168405CD4E90121F3
:1009D0009047206A401C2062281EA5F10105DCDC3E
:1009E00007E0D4E9012118F8010B9047206A401C68
:1009F0002062381EA7F10107F3DC2046FFF744FC14
:100A0000032011B041E6000001694A1C0261087828
:100A1000704700B58FB0CDE901310021059105493E
:100A20007944CDE9031011466846FFF77BFC0FB00F
:100A300000BD0000E5FFFFFF0A6802F8010B0A6035
:100A400070474FF0000200B5134694469646203991
:100A500022BFA0E80C50A0E80C50B1F12001BFF477
:100A6000F7AF090728BFA0E80C5048BF0CC05DF8DD
:100A700004EB890028BF40F8042B08BF704748BF2B
:100A800020F8022B11F0804F18BF00F8012B70479F
:100A9000004870473C0B002030B5B0F10A024FEA25
:100AA000900E71F100034EEA817EB0EB0E0061EB17
:100AB00091014FEA101E4EEA017E10EB0E0041EB51
:100AC00011114FEA102E4EEA016E10EB0E0041EBB1
:100AD00011214FEA104E4EEA014E10EB0E0041EB91
:100AE0001141401841F100014FEAD00040EA417045
:100AF0004FEAD10110EB80054FEA810444EA90747B
:100B000044EB01046D1944EB0404521BA3414FF064
:100B1000000348BF0A3200D530BD401C41F100013E
:100B200030BD00002DE9F0411F4604460326016850
:100B3000072A01F4006004DB08B116A505E016A53C
:100B400003E008B115A500E015A521F01000206014
:100B5000A069C01EA0610FB1401EA0612046FFF732
:100B60007DFB4FB1D4E9012138469047206A401CF3
:100B70002062C01C206206E0206AFAE7D4E9012165
:100B800015F8010B9047761EF8D22046FFF77CFB44
:100B9000BDE8F0814E414E006E616E00494E460048
:100BA000696E66002DE9F047814616468AB03548E1
:100BB00078440DC88DE80D0032487844801C03ACA1
:100BC0000DC884E80D0041F69B300844372190FBA6
:100BD000F1F290FBF1F5A5F1800501FB12041B3C3D
:100BE00002D56442012000E00020DFF898A0804692
:100BF0000027FA44AAF1BE0A0EE0E0070AD0324606
:100C0000684607EB470101230AEB810100F03FFB37
:100C10008DE8070064107F1C002CEED1194F7F4433
:100C2000AE3F19E0E80715D007EB04100DF1180AE4
:100C300090E80E008AE80E00C068F04201D19819D1
:100C400008903246012306A903A800F020FB03AB5D
:100C500083E807006D10641C002DE3D14FF0010301
:100C600032466946B8F1000F03A802D000F0FAFA44
:100C700001E000F00CFBC9E90001C9F808200AB046
:100C8000BDE8F087804A0000004870471C0B002038
:100C90007546FFF7F9FFAE4605006946534620F05A
:100CA0000700854618B020B5FFF7B0FABDE8204030
:100CB0004FF000064FF000074FF000084FF0000B18
:100CC00021F00701AC46ACE8C009ACE8C009ACE8CB
:100CD000C009ACE8C0098D46704710B50446AFF3B3
:100CE00000802046BDE81040FFF77BBA4FF0013C82
:100CF00050F8042B51F8043B9A4221D1A2EB0C038B
:100D0000934313EACC1317D150F8042B51F8043B4A
:100D10009A4215D1A2EB0C03934313EACC130BD1E7
:100D200050F8042B51F8043B9A4209D1A2EB0C0372
:100D3000934313EACC13DBD04FF00000704700BFA1
:100D4000D01A01BAB1FA81F101F0180122FA01F0CA
:100D5000CB40C1F12001DBB2C0B2C01A2CFA01F3C2
:100D6000D11A914311EAC311E6D170475FEA400CF2
:100D700008BF91F0000F4FEA8C234FEAC12243EAEB
:100D800051514FEA1C5018BF00F5F0404FEA3000B7
:100D900018BF41F000415FEA6C5C00F02980BCF1B3
:100DA000FF3F08BF40F080407047130C06BF12049D
:100DB0004FF0100C4FF0000C130E04BF12020CF198
:100DC000080C130F04BF12010CF1040C930F04BFA5
:100DD00092000CF1020CD30F04BF52000CF1010C75
:100DE00011464FF00002A0F11F00A0EB0C0070476D
:100DF00011F0004F08BF704731F000413FF4D5AF0C
:100E00000B0C06BF09044FF0100C4FF0000C0B0E3A
:100E100004BF09020CF1080C0B0F04BF09010CF10F
:100E2000040C8B0F04BF89000CF1020CCB0F04BF24
:100E300049000CF1010CCCF12003A0EB0C0022FACC
:100E400003F302FA0CF241EA030100F101007047DA
:100E500020F07F4C80EA030023F07F47ACEB0703D0
:100E600003F57C5300F0004003F1FF032DE98049B6
:100E70004FEA154B09B44FEA144325EA0B4E24EA16
:100E800003480FF2042606EB132749083E785FEA71
:100E9000320203FB0667C7F5000707FB06F64FEAB9
:100EA00054374FEAD64606F1020607FB066CCCF132
:100EB000005C4FEA1C472CEA074C07FB06F40CFBCE
:100EC00006F504EB15464FEA961634BF00204FF0A6
:100ED00000404FEAD13706FB07FC4FEA1C4C0CFBE5
:100EE0000BF7D21B03FB0CF761EB07010CFB0EF7B2
:100EF000B0EB074072EB17420CFB08F734BFA2EBD4
:100F00000742B2EB074261EB17414FEA0C444FEA4C
:100F1000910706FB07FC4FEA1C4C0CFB0BF7B0EBF0
:100F2000C74072EB573203FB0CF734BFA2EBC7424A
:100F3000B2EBC74261EB57310CFB0EF7B0EBC700C9
:100F400072EB57720CFB08F734BFA2EBC702B2EB8F
:100F5000C70261EB5771039F4FEA816141EA921129
:100F600004EBCC044FEAD1374FEA826206FB07FC60
:100F700042EA90124FEA80604FEA1C4C0CFB0BF7E0
:100F8000D21B03FB0CF761EB07010CFB0EF7B0EB78
:100F9000074072EB17420CFB08F734BFA2EB074285
:100FA000B2EB074261EB17414FEA8C554FEA9107CC
:100FB00004EB9C2406FB07FC4FEA1C4C0CFB0BF7D4
:100FC000B0EBC74072EB573203FB0CF734BFA2EB18
:100FD000C742B2EBC74261EB57310CFB0EF7B0EBE7
:100FE000C70072EB57720CFB08F734BFA2EBC702C5
:100FF000B2EBC70261EB577115EB4C254FEA8161EB
:1010000041EA92114FEA82624FEAD13742EA9012E6
:1010100006FB07FC44F100044FEA80604FEA1C4CD9
:101020000CFB0BF7D21B03FB0CF761EB07010CFB6E
:101030000EF7B0EB074072EB17420CFB08F734BF1A
:10104000A2EB0742B2EB074261EB174115EB1C150F
:101050004FEA813141EA92414FEA823242EA9042BC
:101060004FEA80304FEA0C7644F1000448EA03432B
:101070004EEA0B484FF0000EB2EB080C71EB030781
:1010800024BF624639464EEB0E0E4FF0000B00189F
:10109000524149414BEB0B0BB2EB080C71EB0307D0
:1010A0007BF1000B24BF624639464EEB0E0E4FF02B
:1010B000000B0018524149414BEB0B0BB2EB080CF3
:1010C00071EB03077BF1000B24BF624639464EEB00
:1010D0000E0E51EA020718BF46F0010616EB0E7617
:1010E00055F1000254F1000103D5BDE88901BDE8C6
:1010F0000088BDE88901BDE80048B619524141EBBE
:101100000101A3F10103704780807F7E7D7C7B7AA3
:101110007978777676757473727171706F6E6E6DA3
:101120006C6C6B6A6A696868676666656464636349
:1011300062616160605F5F5E5E5D5D5C5C5B5B5ACF
:101140005A5959585857575656555555545453533C
:1011500052525251515050504F4F4F4E4E4D4D4D97
:101160004C4C4C4B4B4B4A4A4A49494948484847E2
:101170004747474646464545454444444443434320
:101180004342424242414141002B9C4630D47700C9
:101190002BD01CB54FEA370703B44FF010004FF0C7
:1011A0001001BAF1000F06D0BCF1000FDCBF40F017
:1011B000080040F008014FF000000FBCBDE81040EF
:1011C0000BF1010BBBF1010F08BF5FEA170722BF4C
:1011D00012F1010211F101014FF0004143F100034E
:1011E00000F0004043EA00007047F9D35708D0E709
:1011F00046EA064613F1400F4FEA16461FDD13F18B
:10120000200FDFBF16430A46002120335B42BED0C9
:10121000C3F1200746EA064602FA07F74FEA1646E8
:1012200046EA0706C3F1200722FA03F201FA07F79C
:1012300021FA03F14FF0000342EA0702A7E746EA6A
:10124000020646EA06464FEA164646EA0106BCBFD3
:1012500046EA0646360C4FF000034FF000024FF00E
:10126000000194E72DE9804C9A46934670B491E8CA
:10127000380007C831EA400C48BF34EA430C03D5B4
:10128000FFF7E6FDFFF780FFF0BCBDE8008C2DE91D
:10129000804C9A46934670B491E8380007C810F025
:1012A000804F08BF13F0804F03D100F005F8FFF71F
:1012B0006BFFF0BCBDE8008C20F07F4780EA0300A4
:1012C00023F07F4C07EB0C03A3F57C5300F00040A8
:1012D000A3F1FE0392F0000F00F0B38095F0000F31
:1012E00000F077802DE901494FEA11404FEA14469A
:1012F00021EA004800FB06FC24EA064708FB06F644
:1013000007FB08F800FB07F718EB06484CEB164CF8
:101310004FEA124B18EB07484FEA15464CEB1740C3
:1013200022EA0B4E0BFB06FC25EA06470EFB06F6EF
:1013300007FB0EFE0BFB07F71EEB064E4CEB164CA5
:101340004FF000061EEB074E4CEB174B18EB0B084B
:1013500040F1000018EB0E0B58EB000840F10000C4
:101360008F1A4FF000013CBFC943661B14BFB5EB99
:10137000040C00213CBFC943F61B4FEA17444EEA58
:101380008E0E27EA04454FEA1C4704FB07622CEA4D
:10139000074C05FB07F70CFB05F604FB0CFC16EBF2
:1013A000074642EB174216EB0C4642EB1C421BEB86
:1013B000060658EB0202414146EA9E0601D5BDE809
:1013C0000189B619524141EB0101A3F10103BDE8C6
:1013D00001894FEA14454FEA114724EA054621EAFC
:1013E000074C05FB07F406FB07F70CFB06F105FBB2
:1013F0000CFC11EB074144EB17444FEA124711EB89
:101400000C4144EB1C4422EA074C05FB07F206FBA7
:1014100007F70CFB06F605FB0CFC16EB074642EB48
:10142000174216EB0C4642EB1C456A1854F10001BA
:1014300048BF7047B619524141EB0101A3F10103C6
:10144000704795F0000F37D04FEA11424FEA14472A
:1014500021EA024624EA074C02FB07F106FB07F7E4
:101460000CFB06F402FB0CFC14EB074441EB1741A8
:101470004FEA154714EB0C4441EB1C4125EA074C9D
:1014800002FB07F506FB07F70CFB06F602FB0CFC5C
:1014900016EB074645EB174516EB0C4645EB1C4291
:1014A000121951F1000148BF7047B619524141EB82
:1014B0000101A3F1010370474FEA14454FEA1147B8
:1014C00024EA054621EA074C05FB07F106FB07F76E
:1014D0000CFB06F24FF0000605FB0CFC12EB07427A
:1014E00041EB174112EB0C4251EB1C4148BF7047D6
:1014F000921841EB0101A3F10103704708B50121E6
:10150000112001F031FA01210B4800F05BFA4FF491
:101510000050ADF8000010208DF8030003208DF876
:1015200002006946054800F0C1F94FF40051034834
:1015300000F090FA08BD00000002300000100140E9
:1015400000BFFEE71CB505226946154801F096FA72
:1015500000208DF8050013A16846FEF76AFF68B900
:10156000052210A10E4801F09DFA322002F0A6FAE1
:1015700001220E490A48503001F094FA01220B4929
:101580000748503001F07AFA08480088B0F5C87F63
:1015900002DD1E2005490880642002F08FFA1CBD80
:1015A00010F00008464459445A0000001E0500206F
:1015B0007047000038B5022519480078022811DB71
:1015C00000240DE0002029466A1CD5B2C90600900F
:1015D000080E02232A22042101F0B2F8601CC4B2D2
:1015E0000B2CEFDB0E48007850B90E490E480088EE
:1015F00001F0A6FB02230B4A0021572001F01CF941
:101600000748007801280AD106490748008801F0F8
:1016100097FB0223034A0421322001F00DF938BD63
:1016200027050020D80900201E05002030B50446FB
:1016300004254FF4302000F06FF80546042D17D133
:101640000C48006940F002000A49086108464461FC
:10165000006940F0400008614FF4302000F05CF871
:1016600005460448006941F6FD71084001490861DA
:10167000284630BD0020024004200B49C96801F013
:10168000010109B101200EE00749C96801F0040118
:1016900009B1022007E00449C96801F0100109B14D
:1016A000032000E004207047002002400348006946
:1016B00040F08000014908617047000000200240AE
:1016C00070B504460D460426F00200F025F80646E3
:1016D000042E11D10948006940F001000749086152
:1016E0002580F00200F018F806460448006941F62B
:1016F000FE71084001490861304670BD002002407B
:101700000248034948600348486070472301674521
:1017100000200240AB89EFCD00B502460423FFF75D
:10172000ABFF034603E0FFF7A7FF0346521E012B62
:1017300001D1002AF7D102B90523184600BD0000E7
:1017400010B50A23484A4949494802F0C5F84748B4
:101750000068484908604648006847490860002119
:101760004448006803F0F4F905D24248006880F06C
:1017700000404049086000213F48006803F0E8F954
:1017800005D23D48006880F000403B490860394878
:10179000006803F091F980B2BE2806DA3648006886
:1017A00003F08AF980B2BE2803DB012033490870B8
:1017B00005E00020314908700A203149087030489E
:1017C000007808BB2F48007800284BD102232EA2B6
:1017D0000021282001F030F800240CE004F1080179
:1017E000CAB2462101EB0411C8B20023194600F029
:1017F00069FF601CC4B2032CF0DB0020254908708F
:101800000120204908702DE01E480078012829D1C8
:1018100000201C49087020480078012811D10024BC
:101820000CE004F12401CAB2362101EB0411C8B264
:101830000023194600F046FF601CC4B2042CF0DB04
:1018400010E0022315A20021362000F0F5FF154913
:101850001548008801F074FA0223124A002157202B
:1018600000F0EAFF10BD000038050020340500201C
:10187000300500203C050020400500202B050020FD
:101880002D0500202C0500202020202020202020B5
:101890002020200029050020440500205345543A0B
:1018A00000000000D80900201E0500202DE9F041AD
:1018B000024600250026002000230024002791F87E
:1018C00003C00CF00F0591F803C00CF0100CBCF134
:1018D000000F03D091F802C04CEA050591F800C052
:1018E000BCF1000F31D0146800202BE04FF0010C48
:1018F0000CFA00F3B1F800C00CEA03069E4220D1B6
:1019000083004FF00F0C0CFA03F7BC4305FA03FCFD
:101910004CEA040491F803C0BCF1280F06D14FF043
:10192000010C0CFA00FCC2F814C00AE091F803C0E4
:10193000BCF1480F05D14FF0010C0CFA00FCC2F8C5
:1019400010C0401C0828D1D31460B1F800C0BCF10D
:10195000FF0F34DD546800202EE000F1080C4FF03A
:10196000010808FA0CF3B1F800C00CEA03069E4225
:1019700021D183004FF00F0C0CFA03F7BC4305FA9A
:1019800003FC4CEA040491F803C0BCF1280F05D114
:1019900000F1080C08FA0CF8C2F8148091F803C0A2
:1019A000BCF1480F07D100F1080C4FF0010808FA0C
:1019B0000CF8C2F81080401C0828CED35460BDE853
:1019C000F0810000F0B50A46002300240021002524
:1019D00000F00046B6F1004F02D11D4EF16901E062
:1019E0001B4E7168C0F3034583B200F44016B6F590
:1019F000401F08D121F07061154E766826F07066A0
:101A0000134F7E6012E000F48016B6F5801F06D1F9
:101A1000032606FA05F4A14341F0706106E0460D85
:101A2000360103FA06F6B14341F0706122B1460D6A
:101A3000360103FA06F6314300F00046B6F1004FD6
:101A400002D1034EF16101E0014E7160F0BD000072
:101A50000000014041617047016170472DE9F04F7E
:101A600089B007460D463C46607907902146022022
:101A700000F0DCF8205C0690079843287DD106989A
:101A80004128FBD12146042000F0D0F8205C85F8E5
:101A900034002146062000F0C9F8205C85F83500A6
:101AA0002146032000F0C2F82044059000F090F990
:101AB000C5E900012146052000F0B8F82044059052
:101AC00000F086F9C5E90201D5E90021104602F0CF
:101AD0005DFC642190FBF1F808FB01F002F085FC4D
:101AE000CDE90201D5E90001CDE90001DDE90223DC
:101AF00002F09CFDCDE9040102F0CEF98246404699
:101B000002F073FCCDE90401504602F079FE002298
:101B1000454BCDE9000102F0A5FACDE90201DDE96E
:101B2000042302F0EBF9C5E90401D5E902211046CE
:101B300002F02CFC642190FBF1F909FB01F002F0AA
:101B400054FCCDE90201D5E90201CDE90001DDE94E
:101B5000022302F06BFDCDE9040102F09DF98346FA
:101B6000484602F042FCCDE90401584602F048FE26
:101B700000222D4BCDE9000100E053E002F072FAA3
:101B8000CDE90201DDE9042302F0B8F9C5E9060157
:101B9000207A3038E179303901EB810100EB4101E5
:101BA0006964A07A3038617A303901EB810100EB49
:101BB0004101A964207B3038E17A303901EB8101A1
:101BC00000EB4101E9642146092000F02FF80646A8
:101BD000701C205C3038A15D303901EB810100EBD5
:101BE00041012964F01C205C3038B11C615C303943
:101BF00001EB810100EB4101E963701D205C30388D
:101C0000311D615C303901EB810100EB410000F5D1
:101C1000FA60A86305F1380001F085FD012009B0E4
:101C2000BDE8F08F0020FAE700004E402DE9F041BA
:101C300006460D4600272846FEF70DFC8046002488
:101C40000CE0285D2C2801D1781CC7B2B74203D123
:101C5000601CC0B2BDE8F081601CC4B24445F0DB3A
:101C60000020F7E72DE9F05F00F03AF940F24B1160
:101C700000FB01FB584602F0B8FB06460022474B2A
:101C800002F0CAFB04460022454B02F0EBF9804605
:101C900002F002F94349086043494248006802F0F3
:101CA000D6FF02D840483F4908603E48006802F02D
:101CB00003FF80B20A2190FBF1F084B23B49204639
:101CC00001F03EF80223394A0021084600F0B4FD35
:101CD0003748007800284AD13648008802F024FFAF
:101CE000044635492F48006802F024FE0546214687
:101CF00002F02EFF37D83148007800284CD101205F
:101D00002E4908702E48007810B900202D4908701F
:101D10004FF0000A0EE00AF10201CAB2362101EBCF
:101D20000A11C8B20023194600F0CCFC0AF10100E8
:101D300000F0FF0ABAF1040FEDDB4FF4FA6001F096
:101D4000BDFE022320A20021362000F075FD1749B8
:101D50001848008800F0F4FF0223144A002157209D
:101D600000F06AFD18E000201449087014E04FF0FC
:101D7000000A0EE00AF12401CAB2362101EB0A1171
:101D8000C8B20023194600F09DFC0AF1010000F0E2
:101D9000FF0ABAF1040FEDDBBDE8F09F0000F03F51
:101DA00000408F402005002000A08C45D80900206D
:101DB000440500201E0500200000204124050020CD
:101DC0002C050020290500205345543A000000004E
:101DD000FEB5054629460120FFF728FF0446601E90
:101DE000C4B2224629466846FEF776FB00200DF86D
:101DF0000400684600F0C8FF06460F4630463946E4
:101E000003B0F0BD70B52A480078012832D12948C6
:101E100001780078401C274A107005292ADB2649E2
:101E20002648FFF71BFE50B10020254908702549C0
:101E300008701F49087001202349087017E02048E6
:101E400001780078401C1E4A10701E290ADB1E20F3
:101E50001146087000201C49087002231BA20621AD
:101E600000F0EAFC002017490870114908700020B2
:101E7000104908701048D0E90643224615A11748BA
:101E8000FEF7D8F90223154A1946282000F0D4FCA1
:101E90000949D1E9044322460EA11048FEF7CAF9C8
:101EA00002230E4A0421282000F0C6FC70BD000069
:101EB000810500204605002088090020CC0A00206A
:101EC00045050020820500201D05002047505320B5
:101ED000455252002531302E36662000D8090020A8
:101EE0002DE9F047002022490860142001F0E6FDAA
:101EF00001202049C1F8900100BF1D487C380068CE
:101F00000028FAD000211C4801F080F900201B496C
:101F1000088000BF16487C3800680028FAD10021EC
:101F2000154801F04AF9144801F053F9134909889A
:101F30004FF4E15202FB010A504602F056FA0646FF
:101F400000220F4B02F08EF8044600224FF080432F
:101F500002F088F8804602F019FA0A490860012167
:101F6000054801F02AF90748008880B2BDE8F087EB
:101F7000908121420080214200040040140500208D
:101F8000000052401805002008B50121082000F08B
:101F9000EBFC2020ADF8000004208DF803000320A6
:101FA0008DF8020069460848FFF780FC1020ADF864
:101FB00000008DF8030003208DF8020069460248F6
:101FC000FFF774FC08BD0000000C014000BFFEE7F5
:101FD00010B501F033FD10BD08B54FF40040ADF869
:101FE000000003208DF8020048208DF803006946A8
:101FF0000148FFF75BFC08BD0010014008B54FF435
:102000000040ADF8000003208DF8020010208DF88C
:10201000030069460148FFF749FC08BD0010014074
:1020200070B505460C4601F0DFFD782001F0B4FDE7
:1020300001F006FE284601F0AFFD01F001FE20464A
:1020400001F0AAFD01F0FCFD01F0E6FD70BD00000D
:1020500010B500200A490860FFF7D0FF00200949A9
:10206000C1F8BC01022001F071FD012004490860A3
:10207000052001F06BFD00200249C1F8B80110BD38
:10208000B80122420000224208B50121102000F0D0
:102090006BFC4FF44040ADF8000010208DF80300B9
:1020A00003208DF8020069460448FFF7FFFB4FF458
:1020B00040410248FFF7D0FC08BD0000001001407D
:1020C00010B500200A490860FFF798FF0120094970
:1020D000C1F8BC01022001F039FD0120044908606B
:1020E000022001F033FD00200249C1F8B80110BD03
:1020F000B80122420000224270B5054600260024A5
:10210000FFF76AFF00BF16E00020104908600220B8
:1021100001F01CFD01200E49C1F8B8016006040E53
:102120000A487C38006808B1601CC4B2012001F084
:102130000DFD701CC6B2082EE6DB15B9FFF7C0FF17
:1021400001E0FFF785FF204670BD0000B801224284
:102150000000224270B504460025FFF74FFF002023
:102160000D49086000BF14E0E0090B49091D086033
:102170006006040E01200949C1F8B801022001F0EF
:10218000E5FC002004490860022001F0DFFC681C27
:10219000C5B2082DE8DB70BDB80122420000224222
:1021A00010B5FFF72BFF0120094908600949C1F864
:1021B000B801052001F0CAFC00200549086005208F
:1021C00001F0C4FC00200349C1F8B80110BD0000B3
:1021D000BC0122420000224210B5FFF70FFF002091
:1021E000084908600849C1F8BC01052001F0AEFCAF
:1021F0000120044908600449C1F8BC01052001F030
:10220000A5FC10BDB80122420000224210B50024F6
:10221000FFF7E2FE01200E49086001F097FC012063
:102220000C49C1F8B80101F091FC07E0601CC4B290
:10223000FA2C03DDFFF7D0FF012010BD04488038E1
:1022400000680028F2D10249091F086000BFF4E7C6
:10225000BC0122420000224208B501210C2000F0FE
:1022600083FB4FF4E040ADF8000048208DF80300F8
:1022700069460D48FFF71AFB4FF40040ADF8000027
:1022800048208DF8030069460748FFF70FFB4FF41D
:102290008070ADF8000048208DF8030069460348BF
:1022A000FFF704FB08BD0000000C014000080140DE
:1022B00010B55A480068002837D1142001F0FEFB01
:1022C00056480068002830D100BF544800680028F4
:1022D000FBD053480078401C5149087008460078EC
:1022E000012809DD0020087001224E494E4800F007
:1022F000D9FB01204D49087049480078012812D1C6
:1023000000F050F900240CE004F11E01CAB21021C3
:1023100001EB0411C8B20023194600F0D3F9601C88
:10232000C4B2062CF0DBFFF745F93C48001D0068FD
:10233000B0B9322001F0C2FB3848001D006878B9FE
:102340003748007801280BD136480088B0F5E17F86
:1023500004DA34480088401C32490880FFF72AF923
:102360002E4808300068A8B9322001F0A7FB2B489E
:102370000830006870B92A48007801280AD1294835
:102380000088002804DD27480088401E2549088071
:10239000FFF710F921480C300068C0B9142001F093
:1023A0008DFB1E480C30006888B91D48007870B954
:1023B00000BF1A480C3000680028FAD001201C49E0
:1023C00008701C48007810B900201B4908701B4891
:1023D000006808BB142001F071FB18480068D8B9E8
:1023E0000F480078C0B900BF144800680028FBD02F
:1023F00000200F490870022311A20021362000F0AE
:102400001BFA11490748008800F09AFC02230E4A83
:102410000021572000F010FA10BD00003081214249
:10242000270500201E05002060F00008260500207A
:10243000440500202C050020290500202001214210
:102440005345543A00000000D809002008B5012186
:102450000C2000F089FA0220ADF8000028208DF849
:10246000030069460F48FFF721FA4FF40070ADF8FA
:10247000000028208DF8030069460B48FFF716FA84
:102480000120ADF8000010208DF8030003208DF826
:10249000020069460348FFF709FA01210148FFF7E6
:1024A000D9FA08BD00080140000C014070B504468F
:1024B000002015490860052001F000FB00251DE003
:1024C00001201149086004F0010050B14FF416706A
:1024D00001F03CFB00200C490860C82001F036FBED
:1024E00009E0C82001F032FB0020074908604FF4E2
:1024F000167001F02BFB6410681CC5B2082DDFDBE1
:1025000001200149086070BDB401224200BFFEE70E
:10251000704710B54FF4A06000F03AF810BD00000D
:1025200070B5002100230F22C47804B3154C246831
:1025300004F4E064C4F5E064210AC1F10403CA4074
:10254000447804FA03F184781440214309010E4CC5
:102550000678A155047804F01F050124AC400578E5
:102560006D11AD0005F1E025C5F8004109E00478E2
:1025700004F01F050124AC40044D0678761145F89F
:10258000264070BD0CED00E000E400E080E100E0DA
:1025900002490143024A1160704700000000FA0539
:1025A0000CED00E010B5002000F001F810BD70B592
:1025B0000646002415E004F1B001C8B201F042F96A
:1025C000002001F03FF9102001F03CF9002504E063
:1025D000304601F03EF9681CC5B2802DF8DB601C66
:1025E000C4B2082CE7DB70BD10B5642001F066FAB8
:1025F000AE2001F027F9202001F024F9102001F08D
:1026000021F9B02001F01EF9C82001F01BF90020CB
:1026100001F018F9102001F015F9402001F012F92D
:10262000812001F00FF9FF2001F00CF9A12001F049
:1026300009F9A62001F006F9A82001F003F93F20CE
:1026400001F000F9A42001F0FDF8D32001F0FAF820
:10265000002001F0F7F8D52001F0F4F8F02001F0A7
:10266000F1F8D92001F0EEF8222001F0EBF8DA20A1
:1026700001F0E8F8122001F0E5F8DB2001F0E2F8C3
:10268000202001F0DFF88D2001F0DCF8142001F0AB
:10269000D9F8AF2001F0D6F810BD70B504460D464C
:1026A00005F1B001C8B201F0CDF8102141EA1410D3
:1026B00001F0C8F804F00F0141F0010001F0C2F888
:1026C00070BD00002DE9F04781460F4690461E463A
:1026D00000254FEA481439464846FFF7DEFF00BFA1
:1026E0000FE0012E06D11549095DC943C8B201F0BA
:1026F000B0F803E01149085D01F0ABF8641C681CF8
:10270000C5B2102DEDDB781CC1B24846FFF7C5FFFE
:1027100000250FE0012E06D10849095DC943C8B262
:1027200001F097F803E00549085D01F092F8641C98
:10273000681CC5B2102DEDDBBDE8F0871400002049
:102740002DE9F04707460E4691469A46DDF820806F
:1027500000250024A9F12000C5B2BAF1020F40D132
:10276000782F02DD0027701CC6B231463846FFF7CD
:1027700094FF002413E0B8F1010F08D104EB051118
:102780002B4A515CC943C8B201F063F805E004EB81
:102790000511274A505C01F05CF8601CC4B2082C9B
:1027A000E9DB701CC1B23846FFF777FF002415E063
:1027B000B8F1010F09D104EB051108311C4A515C35
:1027C000C943C8B201F045F806E004EB0511083131
:1027D000174A505C01F03DF8601CC4B2082CE7DBDE
:1027E00024E07E2F02DD0027701CC6B23146384639
:1027F000FFF753FF002417E0B8F1010F0AD105EBF2
:1028000045010C4A02EB4101095DC943C8B201F020
:1028100020F807E005EB4501064A02EB4101085D9F
:1028200001F017F8601CC4B2062CE5DBBDE8F087A8
:10283000C64F00089E4D00082DE9F0470646894620
:1028400017469A464FF0000800240025BAF1010F00
:1028500003D0BAF1020F5ED125E020E0785D203888
:1028600000F0FF087E2E04DD002609F1010000F0D3
:10287000FF0949463046FFF710FF002409E008EB46
:102880004801264A02EB4101085D00F0E2FF601CAE
:10289000C4B2062CF3DBB01DC6B2681CC5B2785DAD
:1028A0000028DBD137E032E0785D203800F0FF0807
:1028B000782E04DD002609F1010000F0FF094946E9
:1028C0003046FFF7EAFE002407E004EB0811144A43
:1028D000505C00F0BEFF601CC4B2082CF5DB09F1AF
:1028E0000100C1B23046FFF7D8FE002408E004EB37
:1028F000081108310A4A505C00F0ABFF601CC4B2FA
:10290000082CF4DB06F10800C6B2681CC5B2785D7D
:102910000028C9D100BF00BFBDE8F0879E4D000868
:10292000C64F00087047000029B1064AD269024329
:10293000044BDA6104E0034AD2698243014BDA6155
:10294000704700000010024029B1064A1269024394
:10295000044B1A6104E0034A12698243014B1A6175
:10296000704700000010024029B1064A92690243F4
:10297000044B9A6104E0034A92698243014B9A61D5
:10298000704700000010024029B1064AD268024395
:10299000044BDA6004E0034AD2688243014BDA60F8
:1029A000704700000010024030B5002100220024D2
:1029B00000232D4D6D6805F00C0121B1042905D0CF
:1029C000082923D105E0294D056022E0274D056047
:1029D0001FE0254D6D6805F47012234D6D6805F4F8
:1029E0008034022505EB92421CB9214D5543056008
:1029F0000BE01D4D6D6805F400351DB11C4D5543B0
:102A0000056002E0194D5543056002E0174D056071
:102A100000BF00BF144D6D6805F0F0010909154DA8
:102A20006B5C0568DD4045600F4D6D6805F4E06145
:102A3000090A104D6B5C4568DD4085600A4D6D6884
:102A400005F46051C90A0B4D6B5C4568DD40C560FB
:102A5000054D6D6805F44041890B074D6B5CC568F9
:102A6000B5FBF3F5056130BD0010024000127A009D
:102A700000093D00000000201000002030B5034692
:102A80000C461546002207E0184600F008F824F826
:102A900012009B1C501C82B2AA42F5DB30BD0146DD
:102AA000088870472DE9F04F80468A461746B8F1EE
:102AB000006F02D33348804501D3BDE8F08FFEF7A5
:102AC0001FFEA8F1006B4FEA9B25CBF34809C9F51F
:102AD0000074A74200DC3C464DE04FF0006101EB82
:102AE00085208A142849FFF7C9FF00260BE009EB6F
:102AF0000600254931F810004FF6FF71884200D0DA
:102B000003E0701C86B2A642F1DB00BFA6421BDACE
:102B10004FF0006101EB8520FEF788FD002608E0FC
:102B20003AF8160006EB0901174A22F81100701C4A
:102B300086B2A642F4DB4FF0006101EB85208A14D7
:102B4000114900F023F804E022465146404600F0C7
:102B50001DF8A74200D10FE06D1C4FF000090AEBF1
:102B6000440AA044381B87B2B7F5007F02DD4FF45A
:102B7000007400E03C46B0E700BFFEF797FD00BFE1
:102B80009BE700000000010884050020F0B5054621
:102B90000E461746002407E036F814102846FEF7C4
:102BA0008FFDAD1C601C84B2BC42F5DBF0BD7047EC
:102BB00010B500F001F810BD0CB500200190009098
:102BC0003348006840F480303149086000BF304825
:102BD000006800F4003000900198401C01900098BB
:102BE00018B90198B0F5A06FF1D12948006800F438
:102BF000003010B10120009001E00020009000980A
:102C0000012843D12348006840F0100021490860A2
:102C10000846006820F0030008600846006840F09D
:102C2000020008601A484068194948600846406830
:102C300048600846406840F4806048600846406844
:102C400020F47C1048600846406840F4E810486072
:102C50000846006840F08070086000BF0C480068BB
:102C600000F000700028F9D00948406820F0030007
:102C7000074948600846406840F00200486000BFCD
:102C80000348406800F00C000828F9D10CBD000092
:102C9000001002400020024038B524480078012886
:102CA00043D1002021490870FFF77CFC022320A2B9
:102CB00000213620FFF7C0FD1F492048008800F0A2
:102CC0003FF802231C4A00215720FFF7B5FD0024DE
:102CD0000AE004F11A01CAB22107080E00230221FA
:102CE000FFF7F0FC601CC4B2022CF2DB00240AE007
:102CF00004F11C01CAB22107080E00230421FFF7CA
:102D0000E1FC601CC4B2022CF2DB002002233A2258
:102D1000194600902020FFF713FD002002233A22DD
:102D2000042100902020FFF70BFD38BD2605002070
:102D30005345543A00000000D80900201E05002029
:102D400070B504460D46224609A12846FDF772FAE1
:102D5000092C04DD224608A12846FDF76BFA632CF6
:102D600004DD224606A12846FDF764FA70BD000086
:102D70002564636D202000002564636D2000000041
:102D80002564636D000000002DE9FF5F814600218E
:102D90000F4688464FF0010B4E4668E030782E38DB
:102DA0000C2829D2DFE800F0252806090C1013169C
:102DB000191C1F22002425461EE00024304D1BE074
:102DC00000244FF0804517E000242E4D14E000242D
:102DD0002D4D11E000242D4D0EE000242C4D0BE074
:102DE00000242C4D08E000242B4D05E000242B4D41
:102DF00002E000242A4D00BF00BF0022284B2046DD
:102E0000294601F087FA05D14FF0000B4FF0010A77
:102E1000761C2CE0BBF1010F0ED10022214B38466D
:102E2000414601F0F9FA22462B46CDE9020101F0B4
:102E300065F80746884618E00AEB8A01480001F069
:102E4000D4FA02460B46CDE900012046294601F09E
:102E500009F93A464346CDE9020101F04FF8074629
:102E600088460AEB8A004FEA400A761C00BF307899
:102E7000002893D13846414604B0BDE8F09F0000D9
:102E80000000F03F00000840000010400000144027
:102E90000000184000001C400000204000002240BC
:102EA000000047400000244010B50446012023499B
:102EB0000883042C08D14FF0E020006940F00400A2
:102EC0004FF0E021086107E04FF0E020006920F0BA
:102ED00004004FF0E02108611948006817490860B4
:102EE0001748001D00684860154808300068886071
:102EF00006220C311348FFF7C1FD1048C0890F4965
:102F0000898940EA01400D490968884214D10B487B
:102F1000418A008A41EA00400849496888420BD149
:102F20000648C18A808A41EA00400449896888428B
:102F300002D100200149088310BD0000E8090020EB
:102F4000E8F7FF1F00B000087047000010B51348F5
:102F5000006840F0010011490860084640681049C7
:102F600008400E494860084600680E4908400B4971
:102F700008600846006820F4802008600846406821
:102F800020F4FE0048604FF41F008860FFF710FE39
:102F90004FF000600449086010BD000000100240BE
:102FA0000000FFF8FFFFF6FE08ED00E010B501217C
:102FB000880700F011F900286ED00121880700F081
:102FC000F9F8364800683649C1F88001354801688B
:102FD0000068401C334A10600A2905D300201146BE
:102FE0000860012030490870304801780078401CA2
:102FF0002E4A107014294FDB0020114608702C480F
:10300000007840B12B480078002804DD294800787A
:10301000401E2849087028480078002804DD26480A
:103020000078401E24490870002024490870244874
:103030000068012801D10420087022480078012886
:1030400002D103201D4908701F480078012802D1D1
:1030500002201A4908701D480078012801D117493B
:10306000087016480078A0B11948007828B91349AB
:103070000978491EC8B2FFF719FA15480178007897
:10308000401C134A1070052906DB00201146087009
:1030900002E000200E49087010BD0000040121422A
:1030A000000021424C050020280500204705002093
:1030B0002B0500202D0500202A05002048050020B2
:1030C0002481214224050020440500202C050020F5
:1030D000290500207FB505460C4601210846FFF76B
:1030E00023FCADF80850ADF804400020ADF80A000C
:1030F000ADF8060001A94FF0804000F089F81C20CF
:103100008DF8000000208DF8010002208DF80200EB
:1031100001208DF803006846FFF702FA01221146EC
:10312000900700F06AF80121880700F046F87FBD9B
:1031300010B50121064800F04FF840B1054800885D
:10314000401C044908800121014800F033F810BDFB
:1031500000040040140500207FB505460C460121FF
:103160000220FFF7E1FBADF80850ADF80440002065
:10317000ADF80A00ADF8060001A90D4800F048F8C6
:10318000012211460A4800F038F81D208DF8000091
:1031900000208DF8010001208DF802008DF8030059
:1031A0006846FFF7BDF90021014800F006F87FBD31
:1031B00000040040CA430282704721B1028842F0F5
:1031C0000102028004E002884FF6FE731A4002807A
:1031D00070470146888C704730B5024600200023B6
:1031E0000024158A05EA0103958905EA010413B153
:1031F0000CB1012000E0002030BD1AB183890B43DF
:10320000838102E083898B43838170478184704787
:10321000002202881D4B98420ED01D4B98420BD0C5
:10322000B0F1804F08D01B4B984205D01A4B984202
:1032300002D01A4B984204D14FF68F731A404B8834
:103240001A43174B984207D0164B984204D04FF6BA
:10325000FF431A40CB881A4302808B8883850B88F2
:1032600003850A4B98420BD0094B984208D00E4B6D
:10327000984205D00D4B984202D00D4B984201D197
:103280000B7A03860123838270470000002C0140E3
:10329000003401400004004000080040000C0040E1
:1032A0000010004000140040004001400044014074
:1032B0000048014010B540F22551204800F073F954
:1032C00048B31F480068C82802D300201C49086082
:1032D0001A4800F023FAC1B2194802680068401C7D
:1032E000174B186017488154144800F017FAC4B2FD
:1032F0004F2C05D11448007810B9012013490870EB
:103300001248007838B14B2C05D101200E490870C5
:1033100000200E4908700821084800F037F90128FC
:1033200006D1064800F0FAF90821044800F0BCF87C
:1033300040F22551014800F0C0F810BD00380140AE
:1033400070050020040A002079050020780500207F
:1033500010B540F22551214800F025F970B31F48FF
:1033600000F0DCF9C4B21E480078012826D1242CD4
:1033700008D11C48007828B901201B49087000209A
:103380001A49087018480078012817D118480178A0
:103390000078401C164A1070164844540A2C0DD16F
:1033A00000201449127888540F49087001200F49F1
:1033B00008700C49087000200D4908700821074862
:1033C00000F0E4F8012803D10821044800F06CF86B
:1033D00040F22551014800F070F810BD004800404F
:1033E0001C050020820500208005002081050020AA
:1033F00083050020CC0A002010B586B004460121C8
:103400000820FFF7B1FA01218804FFF78DFA4FF485
:103410000060ADF8000004208DF8030069462048E4
:10342000FEF744FA4FF48060ADF8000003208DF8F9
:10343000020018208DF8030069461948FEF736FA95
:1034400002940020ADF80C00ADF80E00ADF81000AD
:10345000ADF814000C20ADF8120002A9114800F0DC
:10346000F1F8012240F225510E4800F0C6F8012182
:103470000C4800F031F84FF4A060FFF789F82720DE
:103480008DF8040001208DF8050002208DF806005B
:1034900001208DF8070001A8FFF742F806B010BD23
:1034A000000C01400048004001F40072B2F5007FBA
:1034B00000D100BFCA430280704710B5002200232C
:1034C00040F66A14A14200D100BF0A1201249440C0
:1034D000A3B2DC43048010BD21B1828942F40052C2
:1034E000828104E082894DF6FF731A408281704721
:1034F00010B504462048844209D101218803FFF712
:1035000043FA00214FF48040FFF73EFA32E01B48B7
:10351000844209D101214804FFF716FA00214FF433
:103520000030FFF711FA25E01548844209D1012146
:103530008804FFF709FA00214FF48020FFF704FA0E
:1035400018E01048844209D10121C804FFF7FCF9B2
:1035500000214FF40020FFF7F7F90BE00A488442FE
:1035600008D101210805FFF7EFF900214FF4801081
:10357000FFF7EAF910BD00000038014000440040A8
:1035800000480040004C004000500040024600202F
:10359000B1F5007F00D100BF13880B400BB10120B3
:1035A00000E00020704770B502460024002300258B
:1035B000002040F66A16B14200D100BFC1F34215A7
:1035C00001F01F03012606FA03F3012D02D19689AB
:1035D000334006E0022D02D1168A334001E0968A7C
:1035E00033400C12012606FA04F41688344013B155
:1035F0000CB1012000E0002070BDF0B503460024AE
:1036000000260025002040F66A17B94200D100BF0D
:103610001846C1F3421401F01F06012707FA06F508
:10362000012C01D10C3004E0022C01D1103000E05B
:1036300014301AB107682F43076002E00768AF43F0
:103640000760F0BD2DE9F04786B005460E46002420
:10365000A24600BFA1460027B08900B100BF2F4697
:103660002C8A4CF6FF700440F08804432C82AC890D
:103670004EF6F3100440B08831890843718908433D
:103680000443AC81AC8A4FF6FF400440B089044348
:10369000AC8201A8FFF788F91F48874202D1DDF804
:1036A00010A001E0DDF80CA0A88900F4004040B1B2
:1036B0000AEBCA0000EB0A1031684900B0FBF1F8D0
:1036C00007E00AEBCA0000EB0A1031688900B0FB82
:1036D000F1F86420B8FBF0F004012009642101FB3B
:1036E0001089A88900F4004040B1322000EBC900E5
:1036F000B0FBF1F000F00700044308E0322000EBDB
:1037000009106421B0FBF1F000F00F0004432C819C
:1037100006B0BDE8F0870000003801400146888807
:10372000C0F3080070474169491C416141693B2968
:103730000CDD002141610169491C016101693B29DE
:1037400004DD00210161C168491CC160C168083104
:10375000C160C16817294DDDC1681839C160816831
:10376000491C8160416802290BD04168042908D0B6
:103770004168062905D04168092902D041680B2912
:1037800008D181681E290DDD012181604168491C35
:10379000416007E081681F2904DD012181604168E3
:1037A000491C41600168CA1701EB92729210A1EBAB
:1037B00082025AB981681D2913DD4168022910D19E
:1037C000012181604168491C41600AE081681C292F
:1037D00007DD4168022904D1012181604168491C4B
:1037E000416041680C2905DD41680C394160016880
:1037F000491C0160704700BFFEE7000010B5C821FA
:103800000348FCF747FE00200249086010BD000095
:10381000040A00207005002008B501211020FFF7E0
:10382000A3F84FF40050ADF8000010208DF803000D
:1038300003208DF8020069460148FEF737F808BDFD
:103840000010014010B5044621460020FEF7E8FBB9
:1038500010BD10B5044621464020FEF7E1FB10BD27
:10386000490050EAC12018BF04204A0D18BF40F09B
:10387000010040F2FF72B2EB515F08BF40F002005E
:10388000012808BF0520704730380A2801D20120DE
:10389000704700207047014600BF704710B50B21EC
:1038A000312000F0B4F80B212C2000F0B0F80821F2
:1038B0002D2000F0ACF880212E2000F0A8F8002187
:1038C0001E2000F0A4F800211F2000F0A0F8052120
:1038D000202000F09CF810BD2DE9FE4304460D4663
:1038E00016461F460020206028603060002F45D01B
:1038F000804626E06A4601A902A800F041F8BDF919
:10390000080001F0F9F88146216800F0A5FF206069
:10391000BDF9040001F0F0F88146296800F09CFF31
:103920002860BDF9000001F0E7F88146316800F039
:1039300093FF3060052000F0C1F808F1010000F0AD
:10394000FF08B845D6DB384601F0EEF88146494617
:10395000206800F0EFFF2060384601F0E5F881466E
:103960004946286800F0E6FF2860384601F0DCF898
:1039700081464946306800F0DDFF3060BDE8FE83D7
:103980002DE9FC4105460E461746FEF709FCA62028
:10399000FEF7E0FBFEF73AFC3220FEF7DBFBFEF71A
:1039A00035FCFEF7FDFBA720FEF7D4FBFEF72EFC4F
:1039B00000240EE0052C05D10020FEF79DFB0DF83C
:1039C000040004E00120FEF797FB0DF80400601CE2
:1039D000C4B2062CEEDBFEF7FFFB9DF800009DF85D
:1039E000011000EB012000B228809DF802009DF834
:1039F000031000EB012000B230809DF804009DF818
:103A0000051000EB012000B23880BDE8FC8170B5E4
:103A100005460C46FEF7C4FBA620FEF79BFBFEF70F
:103A2000F5FB2846FEF796FBFEF7F0FB2046FEF777
:103A300091FBFEF7EBFBFEF7CFFB70BD08B5012154
:103A40000820FEF791FF03208DF8020014208DF866
:103A500003004020ADF8000069460648FDF726FF48
:103A60008020ADF8000069460248FDF71FFF00F016
:103A7000D3F808BD000C014010B56FF00400FFF74B
:103A800013FA0A4800680A49B0FBF1F009490870C6
:103A90000846007800EB4001C1EBC0104FF6FF7103
:103AA00001EAC0000449088010BD00005005002054
:103AB00000127A00640500206605002001461F4AB6
:103AC00012884A434FF0E0235A6100229A611A4655
:103AD000126942F001021A6100BF4FF0E022106942
:103AE000174A128B92B1174A1268521C154B1A6072
:103AF0001A4612684AF6C8739A4207D90022114B37
:103B00001A60114A1268521C0F4B1A6000F0010231
:103B10001AB100F48032002ADFD00B4A1268B2F5E5
:103B2000966FDAD84FF0E022126922F001024FF0CE
:103B3000E0231A6100229A617047000066050020A8
:103B4000E8090020680500206C0500200146114AA4
:103B500012784A434FF0E0235A6100229A611A46D4
:103B6000126942F001021A6100BF4FF0E0221069B1
:103B700000F001021AB100F48032002AF5D04FF0B3
:103B8000E022126922F001024FF0E0231A610022C4
:103B90009A6170476405002070B5044600251EE058
:103BA00004F0800018B180200E49086003E08020F6
:103BB0000C49091D08600220FFF7C8FF4020094991
:103BC00008600220FFF7C2FF40200649091D086077
:103BD0006006040E0220FFF7B9FF681CC5B2082D6D
:103BE000DEDB70BD100C014010B580200949086073
:103BF000402008600420FFF7A9FF80200549091D27
:103C000008600420FFF7A2FF40200249091D086058
:103C100010BD0000100C014010B58020074908605D
:103C20004020091F08600420FFF790FF802003490F
:103C3000091F08600420FFF789FF10BD140C014024
:103C400010B58020104908600120FFF77FFF402059
:103C50000D4908600120FFF779FF07E0601CC4B23E
:103C6000FA2C03DDFFF7D8FF012010BD0648083805
:103C7000006800F080000028F0D140200249091DB2
:103C800008600020F1E70000100C0140FFF7F4FE8F
:103C9000FEF73FFCC820FFF711FFFEF799F900205F
:103CA00035490870FDF74EFCFDF728FCFEF7D4FA05
:103CB000FEF7EAF9FFF7F2FDFEF766F9FEF7C6FB3D
:103CC000FFF7AAFDFEF790FCFEF76CFC4FF41650D0
:103CD00000F070F84FF41650FFF78EFBFEF762FC11
:103CE000FFF78CFD01202449087041F61F4140F286
:103CF000F310FFF7EFF9002141F61F40FFF72CFA10
:103D000039E001231DA207210020FEF795FDFEF7F3
:103D1000CFFA01231BA207210020FEF78DFDFEF73D
:103D2000BBFF1A48007818BB1948007801281FD13A
:103D3000002017490870012316A20721FEF77CFD19
:103D4000FEF760F8012315A207210020FEF774FD9D
:103D5000FDF7F6FC012313A207210020FEF76CFDFE
:103D6000FDF780FF012311A207210020FEF764FD6B
:103D70000120FFF7A3FEC4E71C0500204C6F6F7005
:103D8000204100004C6F6F7020420000270500208A
:103D9000280500204C6F6F70204300004C6F6F703F
:103DA000204400004C6F6F70204500004C6F6F7016
:103DB0002046000010B586B00446012144F20500FB
:103DC000FEF7D2FD2748FFF793FB4FF40070ADF8E4
:103DD000140003208DF8160018208DF8170005A98F
:103DE0002148FDF763FD4FF48060ADF81400042016
:103DF0008DF8170005A91C48FDF758FD25208DF802
:103E0000000001208DF801008DF802008DF80300FC
:103E10006846FEF785FB01940020ADF80800ADF878
:103E20000A00ADF80C00ADF810000C20ADF80E0043
:103E300001A90C48FFF706FC01A90A48FFF702FC9C
:103E4000012240F225510748FFF7D7FB002240F23C
:103E500024410448FFF7D1FB01210248FFF73CFB56
:103E600006B010BD003801400008014010B500291F
:103E70000AD00878002807D005487844FCF736FFB8
:103E8000002801D0002010BD0248784410BD000079
:103E9000F2170000EA17000021F00042A2F1605280
:103EA000B2F5801F01F0004328BFD2F17F6C0BD91F
:103EB0005FEA001C43EAC20242EB507018BF704731
:103EC00028BF20F001007047B2F5801FBCBF184624
:103ED00070474FEA410C1CF5001F02D2084600F063
:103EE000B1BE70B500F042FB00000089FFF7F6BFDD
:103EF0004FF00040A0F580007047000010B591EA37
:103F0000030F48BF83F0004300F19883841A71EBDC
:103F1000030C05D2121943EB0C03001B61EB0C01DF
:103F2000DFF824E14FEA1154A4EB135C1EEA430FBF
:103F300018BF9EEA445F73D023EA0E03DCF1200E23
:103F400021EA045143F4801332D322FA0CFE10EB21
:103F50000E0023FA0CFE41EB0E01CCF1200E03FA09
:103F60000EFE10EB0E0051F10001B1F5801FCCF1F7
:103F7000200E32D201EB045112FA0EF2BDE81040CD
:103F800058BF7047401C38BF5FEA420218BF7047F5
:103F9000002814BF20F0010041F100014FEA410365
:103FA00013F5001F38BF7047A1F1C04100F02CBBD2
:103FB000012A43EB0302ACF1200CDCF11F0E32BFEF
:103FC0004FF0000E23FA0CF310EB030041EB045109
:103FD000B4EB115FD0D0A1EB045101F58011490879
:103FE0005FEA300001EB04510ED350F1000038BFFE
:103FF00012FA0EFE08D1BDE81040C9E7401C38BFD8
:104000005FEA4202CAD1C3E7BDE810404FEA41036C
:1040100013F5001F38BF7047A1F1C04100F0F4BA9A
:104020009EEA445F08D011EA5E0FBDE8104004BF6D
:1040300001F0004100207047BDE8104070B500F06D
:1040400095FA00BF64FBBE3E0000E0FF491058BF78
:10405000C1F140415B1058BFC3F140438B42EFF3C5
:10406000008070472DE9C04130B4DFF8A0C23CEABF
:10407000111418BF3CEA131400F0EC8081EA030528
:104080001CEA111444EAD57418BF1CEA131500F099
:10409000C780A4EB05044FF0004545EAC12145EA7D
:1040A000C32341EA505143EA525304F17F749942C9
:1040B00004F500344FEAC0204FEAC22208BF904204
:1040C00000F09C804FEA13650FF24016765D4FEAD0
:1040D000134506FB05F7C7F1807706FB07F74FEAA4
:1040E000D737A7FB03687642C8F58038A7FB06CE12
:1040F00038BFA8F1010807FB08E64FF0000EA6FB49
:10410000028CE6FB03CEDCF1000CCEF1004E38BF92
:10411000AEF1010EA6FB0C584FF000074FF0000562
:10412000E6FB0E87A1FB08C6A0FB07CE16EB0E062A
:1041300045F10005E1FB076515F1E04E7EBFA4F5F2
:1041400080345FEA46066D4116F1800745F10005AF
:104150004FEA17274FEA066647EA0567A6F1DE46EB
:10416000B6F1805F4FEA15251FD9384624F0010CBF
:1041700005EBC471BCF1FE6F01EB0C1102D8F0BC71
:10418000BDE8008124425CBF01F5801E9EEAC47F29
:1041900002D4F0BCBDE80081244238D4F0BCA1F1C7
:1041A000C041BDE8004100F02FBA4FEAD22242EAF6
:1041B00043524FEAD323A7FB02864FEAD02040EABE
:1041C000415007FB03661EEA0E0F4FEAD12105FBA3
:1041D000026658BFA6EB0056B6EB00564FEA520EE9
:1041E0004EEAC37E18EB0E0E56EB530EBDD518EB00
:1041F00002085E417F1C55F10005B6E74FF48015BB
:104200004FF000074FF000064FF00008ADE7F0BC9C
:104210004FF0000001F1C04101F00041BDE8008114
:1042200011EA0C1F0CEA131500D00CE013EA0C1F66
:1042300000F025804FF00000F0BC81EA030101F09E
:104240000041BDE80081F0BCBDE8004181EA030106
:1042500000F0DAB9F0BCBDE8004170B500F086F9B5
:10426000097EFC3E00F007B881EA03014FF0000030
:1042700001F00041704781EA030100F0C5B9F0BCCC
:10428000BDE800414FF0000021497047FFFDFBF9F8
:10429000F7F5F4F2F0EEEDEBE9E8E6E4E3E1E0DE79
:1042A000DDDBDAD8D7D5D4D3D1D0CFCDCCCBCAC8EB
:1042B000C7C6C5C4C2C1C0BFBEBDBCBBBAB9B8B712
:1042C000B6B5B4B3B2B1B0AFAEADACABAAA9A8A805
:1042D000A7A6A5A4A3A3A2A1A09F9F9E9D9C9C9BD3
:1042E0009A9999989797969595949393929191907E
:1042F0008F8F8E8E8D8C8C8B8B8A8989888887870F
:104300008685858484838382828181800000FF0783
:104310000000F87F51EA030C17D41CF5801F58BF2A
:10432000BCF5801F00F10680994218BF704708BF96
:104330009042704707D711F5801F58BF13F5801FB3
:1043400019D499427047894270471CF5801F08D5DF
:10435000BCF5801FF7D58B4218BF704708BF82425B
:1043600070474FF4001C1CEB410F38BF1CEB430F90
:1043700001D28B42704770B500F0F8F892244900E2
:104380004FF000514FF08053FFF760BE4FEA4103FA
:104390004FEA5353A3F58063D3F11E03C8BFD3F193
:1043A000210C0CDD4FF0004242EAC12242EA505299
:1043B00032FA03FC8CEAE17CACEBE1707047102B25
:1043C000C4BF0020704703F5787CBCF1FF3F04D0E8
:1043D0006FF0004282EA2100704770B500F0C6F825
:1043E0004992248000207047F2E710F0004248BF55
:1043F0004042B0FA80F310FA03F10AD0C3F11D0372
:1044000003F580634FEA415002EB035202EBD121E6
:1044100070474FF000007047DFF848C170B51CEAE4
:10442000111E1EBF1CEA13159EEA0C0F95EA0C0F15
:1044300000F06F8081EA030423EA4C134EEAD47E35
:1044400021EA4C1141F4801143F48013AE44A1FBE6
:10445000024CA0FB0365AEF17F7E361955EB0C05CF
:10446000A1FB034C4CF10003A0FB021C16EB0C0655
:10447000654153F10003094218BF46F0010613F4E9
:10448000007F0BD14FEA03314FEA0530340341EA94
:10449000155140EA16506FF003020AE04FEAC321BB
:1044A0004FEAC520F40241EA555140EA56506FF0F8
:1044B000020202EB2E4201EB025585EACE710AD0D0
:1044C0005FEA440C18BF24F0004450F1000041F1B1
:1044D000000120EAD47040F2FE7C624500D270BD3B
:1044E000A84214BF4FF080444FF04044002E08BF54
:1044F0000024BEF1806FA8BFA1F1C041BDE87040AB
:1045000080F282804FF0000001F1C04101F00041D3
:1045100070479EEA0C0F0CEA131518BF95EA0C0FB2
:1045200006D04FF0000081EA030E0EF0004170BD8E
:1045300000F01CF88900013E00F007B800F009B84F
:104540004FEA430C5FEA5C5C08D081EA030100F0AB
:104550005BB84FEA410C5FEA5C5CF6D14FF00000BB
:10456000014970470000FF070000F87F0EF1020EBE
:104570002EF0030E5EF8046B364205D4012A43EB9D
:10458000030515F5001F12D8012841EB010C1CF59D
:10459000001F0CD80ED14FEAD17C15F5001F0CEB93
:1045A0004C0C0CF1020C08BF4CEBD37C04E04FF038
:1045B000080C01E04FEAD37C0CEB4C0526FA05F61B
:1045C00006F00706B6F1040C06D20EEB860CBDE829
:1045D00070404CF0010C6047DFE80CF0090B020260
:1045E0004FF000414FF00000A1F5002170BD1946C9
:1045F0001046012851EB010418BFD4F5001484BF04
:10460000002001F0004170BD0808A0F500114FEA3C
:104610003101704791EA030F10B581F000413FF579
:1046200075AC83F0004300F009B8000010B591EAC2
:10463000030F48BF83F000433FF568AC841A71EB69
:10464000030C07D212198CF0004C43EB0C03001B37
:1046500061EB0C01DFF8A4E14FEA1154A4EB135C09
:104660001EEA430F18BF9EEA445F00F0B08023EAC1
:104670006E03524221EA0451C3EB6E0338BF5B1E46
:10468000DCF1200E25D322FA0CFE10EB0E0043FACB
:104690000CFE41EB0E01CCF1200E03FA0EFE10EBE6
:1046A0000E0051F10001CCF1200E29D412FA0EF2C5
:1046B00001EB0451BDE8104058BF7047401C1CBFBF
:1046C000B2F1004F704700280CBF491C20F00100D8
:1046D000704712EB020E43EB030218BF4FF0010EBE
:1046E0004EEA4202ACF1200CDCF11E0E54D943FA22
:1046F0000CFE10EB0E0051F1FF31CCF11E0ED5D5A2
:104700000EF1010E12FA0EFE404141EB010101EBE8
:10471000445C5FEA5C5C10D910EBDE7001EB045185
:1047200038BFBEF1004FBDE8104018BF70470028E9
:104730000CBF491C20F00100704730D24FEAD42C46
:1047400011F5001124F400641BD0B1FA81F20B3A88
:10475000A41AA41ED2F12003914030FA03F31943A6
:10476000904001EBCC71002C01EB0451BDE81040EE
:10477000A8BF704701F1C0414FF0000001F00041B7
:104780007047B0FA80F310FA03F100D110BDE41ABB
:10479000173C4805C90AE4E701EB045110BD491074
:1047A00001EB0451BDE810404FEA300002E04FF049
:1047B000000170474A0008BF0042F8D0B2F5001F60
:1047C00028BF704701F000414FF0000070479EEA9B
:1047D000445F07D011EA5E0FBDE8104004BF00211E
:1047E00000207047BDE8104070B5FFF7BFFE00BF66
:1047F00040DFF63E83F00041104670470000E0FFC6
:1048000043004FEAD30C4FEA3C0C43401FBF400724
:104810000CF1605113F0FE4F70471CF0006F03D194
:1048200000200CF0004170470CF0004343EA507048
:1048300010B540EACC0000F0BFF900BF00000092C4
:104840004FEA0001FFF7E0BE4FF000414FF00000DB
:10485000A1F500217047000090EA010F48BF81F0E8
:10486000004100F12C82421A3CBF801A89184FEA9D
:10487000D0524FF07F4C1CEA410FA2EBD15318BF2E
:104880009CEA026F00F03B804FF0004C4CEA0020A5
:104890004CEA012121FA03FC10EB0C0C1ED202F1B0
:1048A000FF325FEA1C2040EBC25038BF70471CF05B
:1048B0007F0F4FEA400C18BFBCF17F4F38BF7047E5
:1048C000C3F12003994008BF20F00100BCF17F4FE5
:1048D00038BF7047A0F1C04000F0B4B94FEA3C00C7
:1048E000000A40EBC25028BF1CF0FF0F4FEA400CFB
:1048F000E6D018BFBCF17F4F38BF7047EAE79CEAAB
:10490000026F05D010EA5C0F08BF00F0004070474E
:1049100010B500F051F900BF64FBBE3E401058BF17
:10492000C0F14040491058BFC1F140418142EFF30E
:10493000008070474FF47F0C1CEAD0121EBF1CEAA7
:10494000D11392EA0C0F93EA0C0F00F0858090EAE5
:10495000010F48BF42F4807240F4000C41F40000A3
:104960002CF07F4120F07F4000B58142A2EB030292
:104970000FF2081CACEB504EC0F100009EF800E0B6
:104980004FEA4E0E00FB0EFC38BF49004FEA2C1CCC
:1049900002F5FA020CFB0EF34FEACE1E4FEA112C81
:1049A0004FEAC1210EEB635E42EB22420EFB0CFC90
:1049B0004FEA1C5300FB03114FEA112C4FEA01315F
:1049C0000EFB0CFC4FEADC4C00FB0C11C14228BF73
:1049D00009184CEB03335DF804EB10EB410143EB9A
:1049E000C250B2F57C0F38BF704729D512F0F00FD6
:1049F0001CBF00F1C04000F000407047008182837E
:104A00008485868788898B8C8D8E8F9192939596DD
:104A100097999A9C9D9FA0A2A3A5A7A8AAACAEB067
:104A2000B2B3B5B7B9BCBEC0C2C5C7C9CCCED1D46C
:104A3000D7D9DCDFE2E6E9ECF0F3F7FAFE0000009C
:104A40004FEA400C0CF1807CBCF17E4F28BF7047D0
:104A5000B0F1C04000F0F6B890EA010F0CEAD113B3
:104A600048BF42F48072624538BF634507D213F4F1
:104A70007F0F16D080EA010000F00040704710B5AB
:104A800000F09AF8097EFC3E00F005B880EA0100CB
:104A900000F00040704780EA010000F0004000F0A4
:104AA000D1B812F47F0F04BF0248704780EA0100BA
:104AB00000F0C8B80000C07FC10DD1F19E0206DB36
:104AC0004FEA002343F0004323FA02F0704700420C
:104AD00007D54FEA4001B1F1FE4F02D24FF000007E
:104AE000704710B500F068F84992248000207047A4
:104AF0006FEA20007047000010F0004148BF4042BC
:104B0000B0FA80F310FA03F2C3F19D030BD051EA1F
:104B1000C35101EB1220530638BF704700F101006A
:104B200008BF20F001007047B0FA80F310FA03F2DA
:104B3000C3F19D030AD0D90501EB1220530638BFFB
:104B4000704700F1010008BF20F00100704700002D
:104B500050EA010C00F113801CF5000F58BFBCF5A2
:104B6000000F01D48842704707D710F5000F58BFD7
:104B700011F5000F15D488427047894270471CF523
:104B8000000F04D5BCF5000FF7D5814270474FF0F8
:104B9000807C1CEB400F38BF1CEB410F01D28142DF
:104BA000704710B500F008F8922449004FF000500B
:104BB0004FF08051FFF7B2BE0EF1020E2EF0030E41
:104BC0005EF8044B244204D44FEA4102B2F17F4F15
:104BD00011D84FEA4003B3F17F4F0CD80ED14FEA02
:104BE000D07CB2F17F4F0CEB4C0C0CF1020C08BFE7
:104BF0004CEBD17C04E04FF0080C01E04FEAD17C93
:104C00000CEB4C0324FA03F404F00704B4F1040C95
:104C100006D20EEB840CBDE810404CF0010C60474E
:104C2000DFE80CF0070802024FF00040A0F580001A
:104C300010BD0846420018BFD2F1807288BF00F054
:104C4000004010BDFF2141EAD050C005704751EA35
:104C5000000C00F113801CF5000F58BFBCF5000FCD
:104C600001D48142704707D711F5000F58BF10F5E6
:104C7000000F15D481427047894270471CF5000F20
:104C800004D5BCF5000FF7D5884270474FF0807C03
:104C90001CEB410F38BF1CEB400F01D2884270471C
:104CA00080EA010081EA000180EA0100FFF779BF94
:104CB00090EA010F48BF81F000413FF5D4AD421AA0
:104CC00004D882F00042A0EB020011444FEAD05217
:104CD0004FF07F4C1CEA410FA2EBD15318BF9CEA66
:104CE000026F4AD04FF0004C4CEA00204CEA012100
:104CF00021FA03FCB0EB0C0C0FD412F0FE0F36D0EF
:104D00005FEA4C001DD5001240EBC25038BF70471F
:104D10001CF03F0F18BF70470BE0A2F101025FEAE1
:104D20001C2040EBC25038BF70471CF07F0F18BFEB
:104D30007047C3F12003994014BF401E20F00100CA
:104D4000704780084FEA122308BF7047B0FA80FC12
:104D5000A2EB0C02CCF1280C60FA0CF093EA122FB3
:104D600004BF00EBC25070474FEAC3707047130A8C
:104D70005FEADC1008BF7047F6E79CEA026F04D0D8
:104D800010EA5C0F08BF0020704710B5FFF714FF52
:104D900040DFF63E81F000407047FBF7FEBC0000AC
:104DA000000000000000002F0000000007000700C6
:104DB00000147F147F1400242A7F2A1200626408E2
:104DC000132300364955225000000503000000005F
:104DD0001C224100000041221C000014083E08145F
:104DE0000008083E0808000000A06000000808084D
:104DF0000808000060600000002010080402003E67
:104E00005149453E0000427F400000426151494601
:104E1000002141454B31001814127F1000274545F1
:104E20004539003C4A494930000171090503003603
:104E30004949493600064949291E00003636000016
:104E4000000056360000000814224100001414141B
:104E50001414000041221408000201510906003216
:104E60004959513E007C1211127C007F4949493654
:104E7000003E41414122007F4141221C007F4949BF
:104E80004941007F09090901003E4149497A007FF3
:104E90000808087F0000417F4100002040413F0199
:104EA000007F08142241007F40404040007F020CF8
:104EB000027F007F0408107F003E4141413E007F99
:104EC00009090906003E4151215E007F0919294662
:104ED0000046494949310001017F0101003F40403E
:104EE000403F001F2040201F003F4038403F0063EC
:104EF000140814630007087008070061514945430E
:104F000000007F41410000552A552A5500004141CB
:104F10007F000004020102040040404040400000C5
:104F200001020400002054545478007F484444385F
:104F300000384444442000384444487F00385454E6
:104F4000541800087E0901020018A4A4A47C007F64
:104F5000080404780000447D4000004080847D0007
:104F6000007F102844000000417F4000007C0418AE
:104F70000478007C0804047800384444443800FC79
:104F8000242424180018242418FC007C0804040895
:104F900000485454542000043F444020003C40400A
:104FA000207C001C2040201C003C4030403C004441
:104FB00028102844001CA0A0A07C004464544C4449
:104FC0001414141414140000000000000000000069
:104FD000000000000000000000F8000000000000D9
:104FE00000333000000000100C06100C060000001A
:104FF00000000000000040C07840C0784000043F3E
:1050000004043F040400007088FC0830000000180D
:1050100020FF211E0000F008F000E0180000002131
:105020001C031E211E0000F00888700000001E21D5
:1050300023241927211010160E0000000000000084
:10504000000000000000000000E018040200000062
:1050500000071820400000020418E0000000004093
:10506000201807000000404080F08040400002020D
:10507000010F01020200000000F000000000010129
:10508000011F01010100000000000000000080B0CD
:10509000700000000000000000000000000000019F
:1050A00001010101010100000000000000000030CA
:1050B0003000000000000000000080601804006064
:1050C00018060100000000E010080810E000000FC2
:1050D000102020100F00001010F800000000002029
:1050E000203F202000000070080808887000003071
:1050F0002824222130000030088888483000001819
:10510000202020110E000000C02010F80000000731
:105110000424243F240000F80888880808000019A7
:10512000212020110E0000E0108888180000000FD8
:10513000112020110E0000380808C83808000000AF
:10514000003F000000000070880808887000001C04
:10515000222121221C0000E010080810E0000000BD
:10516000312222110F00000000C0C000000000002A
:10517000003030000000000000800000000000004F
:105180008060000000000000804020100800000146
:105190000204081020004040404040404000040409
:1051A00004040404040000081020408000000020D3
:1051B000100804020100007048080808F000000010
:1051C000003036010000C030C828E810E0000718A1
:1051D000272423140B000000C038E0000000203C0E
:1051E00023020227382008F8888888700000203FB2
:1051F000202020110E00C0300808080838000718C9
:1052000020202010080008F808080810E000203FBF
:10521000202020100F0008F88888E8081000203FA0
:1052200020202320180008F88888E8081000203F74
:10523000200003000000C0300808083800000718EC
:105240002020221E020008F808000008F808203F6D
:10525000210101213F20000808F808080000002073
:10526000203F2020000000000808F8080800C08047
:1052700080807F00000008F888C028180800203FC0
:1052800020012638200008F8080000000000203F18
:1052900020202020300008F8F800F8F80800203F0F
:1052A000003F003F200008F830C00008F808203F09
:1052B000200007183F00E01008080810E0000F1059
:1052C000202020100F0008F808080808F000203FF0
:1052D000210101010000E01008080810E0000F188B
:1052E000242438504F0008F8888888887000203FB0
:1052F0002000030C302000708808080838000038AF
:10530000202121221C00180808F8080818000000B5
:10531000203F2000000008F808000008F808001FDF
:10532000202020201F000878880000C838080000CE
:1053300007380E010000F80800F80008F800033CE8
:105340000700073C030008186880806818082030B0
:105350002C03032C30200838C800C838080000008F
:10536000203F2000000010080808C8380800203836
:10537000262120201800000000FE0202020000008A
:10538000007F40404000000C30C0000000000000E2
:1053900000010638C00000020202FE0000000040CA
:1053A00040407F00000000000402020204000000F0
:1053B00000000000000000000000000000008080ED
:1053C00080808080808000020204000000000000D5
:1053D00000000000000000008080808000000019B4
:1053E000242222223F2008F8008080000000003F95
:1053F000112020110E000000008080800000000EAF
:10540000112020201100000000808088F800000E8C
:10541000112020103F200000808080800000001FAD
:10542000222222221300008080F088888818002021
:10543000203F202000000000808080808000006BE2
:1054400094949493600008F8008080800000203FCE
:10545000210000203F2000809898000000000020DC
:10546000203F20200000000000809898000000C02D
:105470008080807F000008F8000080808000203F4E
:1054800024022D302000000808F800000000002051
:10549000203F202000008080808080808000203F8E
:1054A00020003F20003F8080008080800000203F5F
:1054B000210000203F200000808080800000001F2D
:1054C000202020201F00808000808000000080FFBE
:1054D000A12020110E000000008080808000000EBE
:1054E000112020A0FF80808080008080800020200C
:1054F0003F21200001000000808080808000003378
:10550000242424241900008080E080800000000012
:10551000001F202000008080000000808000001F0D
:10552000202020103F2080808000008080800001AB
:105530000E300806010080800080008080800F30DF
:105540000C030C300F000080800080808000002061
:10555000312E0E312000808080000080808080818C
:105560008E701806010000808080808080000021FD
:10557000302C2221300000000000807C020200005C
:105580000000003F404000000000FF00000000005D
:105590000000FF0000000002027C800000000040CC
:1055A000403F000000000006010102020404000068
:1055B000000000000000000002400000000000A009
:1055C0000000000005400000000000C800000000CE
:1055D0000C4000000000409C00000000194000004A
:1055E0000020BCBE0000000034400000BFC91B8E7C
:1055F00000000004B5400000504BCFD06607E2CF5A
:10560000010000006C4100003E8251AADFEEA73489
:1056100001000000D9420000DCB5A0E23A301F973B
:10562000FFFFFFFFB4450000FD25A0C8E9A3C14F5F
:10563000FFFFFFFFFF3F00000000008000000000B0
:10564000FF3F0000000000800000000088560008B6
:10565000000000208405000028010008D859000837
:1056600084050020FC0B00008C0100081C000000D9
:1056700043000000F8FFFFFF0C0000000E000000D8
:105680000F0000002E00000012000120050102039F
:105690000404300A0607080902040608020120066D
:1056A000FE020242820B42000132FF2B22060B2037
:1056B00008FE225A8600FE920132FE1B10150408D5
:1056C0000700FF4020030C1422414000003E22E26C
:1056D000223E262101200DE20200203F201F111151
:1056E000007F44011010474000040404F484D4A552
:1056F000A6A4D484F40C1150101B0202123A161303
:10570000121A3242827E0000404042CC0008488893
:10571000080808FF041111400E201F20404041409E
:1057200048504F40404020400B0000FC242424E21D
:10573000232220201004504C431C225F20013E8075
:1057400041C01009403C1010FF10101090441C7E06
:10575000403F22228041310D030D314181008060A4
:10576000F80704645CC4644400F817340DFF00209B
:1057700062221F1212004F807F2DC3FE0001A23350
:105780000D31E0100A40A09E8282829EA020C010AF
:105790001800003F908840432C102846418080002C
:1057A000001715D55557557D042404D515171040FD
:1057B00004407F5501267F001195140CFF105044C2
:1057C0005465C64464544450140E44827F0182825E
:1057D0004A562322524E82B022FC9220084020D802
:1057E000171010F0C1101A0F0402FF00804021169C
:1057F000081621408000908887FC84848002F21281
:105800000113F202D0140D18070830004045594129
:1058100041514DC021E1140700042424252663448E
:1058200004040001FD23F9490112F91F400580809D
:10583000BEA20112BE0C21E01706055520054484C6
:10584000443C0D100A0484E45C44C40002F2E112FA
:10585000FED0140802017F10103F00CF15D5534031
:105860003F601183500784FE828382806019402448
:105870000700418E3040F8E0210132FE0625D03588
:1058800035555A1189100480908C3C13F586051407
:105890000484948C30100B80808446492810102C8E
:1058A00023DE21A0240C4020504844C3444850200B
:1058B00040502B40407A3900314F093E20051DE011
:1058C00014142030AC63201880824222121A26421F
:1058D00080002267226921D5227ED159BB16FC5E49
:1058E00029C3240F040040308F80844C5525252582
:1058F000554C5041401D0203500748FF4848480896
:10590000401E00940300061FFF0212221E4009439E
:10591000608E90E10339602C0680423A4282F403A3
:1059200010068200F212FE021409F20000BE2AEAFA
:105930002A3EBA0C0E414A49484949FF00424949AA
:105940007F49498003120055240ABF4002462A922B
:105950002A4642D1240C4829094D8D7B0B09284C3D
:1059600098612C05100894937D042C059A9690F06C
:105970005003180830047484848CB4152C09E4078F
:105980001060000008283D041C07FF8808894A2889
:105990003F041D31031C06080442817FE9042F04E3
:1059A00008D1032D9A0411D83DE0031141280D20A0
:1059B0003F2121111F9040201847809F85CA521E09
:1059C0000842010F03200A00016004A24A043E6D50
:0859D0005405011E3600000021
:04000005080000ED02
:00000001FF
